:020000040000FA
:10000000FC3F0020B90100000000000000000000DB
:1000100000000000000000000000000000000000E0
:1000200000000000000000000000000000000000D0
:10003000000000000000000000000000BD01000002
:1000400000000000C50100000000000000000000EA
:1000500000000000000000000000000000000000A0
:100060000000000000000000000000000000000090
:100070000000000000000000000000000000000080
:1000800000F002F800F040F80CA030C8083824183E
:100090002D18A246671EAB4654465D46AC4201D1C0
:1000A00000F032F87E460F3E0FCCB64601263342B2
:1000B00000D0FB1AA246AB46334318472805000080
:1000C00048050000103A02D378C878C1FAD8520720
:1000D00001D330C830C101D504680C6070470000FE
:1000E0000023002400250026103A01D378C1FBD854
:1000F000520700D330C100D50B6070471FB5C04612
:10010000C0461FBD10B510BD00F024FA1146FFF720
:10011000F5FF00F00EF900F04DFA03B4FFF7F2FF1F
:1001200003BC00F036F8000000BF51210906097A2F
:10013000C907C90FF9D1512212061071704700BFCB
:1001400051210906097A08221142F9D051210906E4
:100150000878704710B503460C460A2B02D10D20D3
:10016000FFF7E2FF1846FFF7DFFF10BD10B50446AA
:10017000FFF7E5FF03461846FFF7D6FF0D2B03D127
:100180000A20FFF7D1FF0A23184610BD01460020C0
:10019000704702A000F0F2F800BFFEE70A45525295
:1001A0004F52202D20657869742066726F6D206D26
:1001B00061696E28290A00000748004707B500F06A
:1001C00015F807BD07B500F012F807BD034804494C
:1001D000044A054B704700008100000070000020B9
:1001E00070080020700400207004002070477047E1
:1001F00000B501460B0000F0E7F9110A0C0E1012D1
:100200001416181A1C1E20222426282A2C0000202E
:1002100021E001201FE003201DE007201BE00F204C
:1002200019E01F2017E03F2015E07F2013E0FF209A
:1002300011E048480FE048480DE048480BE04848C6
:1002400009E0484807E0484805E0484803E04848D6
:1002500001E0002000BF00BF00BDFF2000042921F5
:100260004906C8607047002903D029225206106051
:1002700002E0292252065060704700B501460B008B
:1002800000F0A2F90B07090B0D0F11131517191B1D
:100290001D00FA2015E0602013E0DA2011E0F220C2
:1002A0000FE066200DE0B6200BE0BE2009E0E02064
:1002B00007E0FE2005E0F62000BF022000BF00207E
:1002C00000BF00BF00BDF8B505460027002D01DACC
:1002D00001276D4201241EE00A21284600F066F83D
:1002E000CEB23046FFF7C9FF009001210098FFF71A
:1002F000BAFF0A21284600F059F80546042C09D116
:10030000012F07D10A20FFF7B8FF009001210098C4
:10031000FFF7A9FF641C042CDEDDF8BD08B5002141
:10032000009102E00099491C009100998142F9D3A3
:1003300008BDFFF792FF0BE00924E44306E02046E6
:10034000FFF7C1FF0B48FFF7E9FF641C0A2CF6DD3D
:10035000F2E70000FF010000FF030000FF070000BC
:10036000FF0F0000FF1F0000FF3F0000FF7F0000A5
:10037000FFFF000000093D00704700000FB4054971
:1003800010B503AA029800F0B9F810BC08BC04B07C
:100390001847000000000020002203098B422CD3E4
:1003A000030A8B4211D300239C464EE003460B43C5
:1003B0003CD4002243088B4231D303098B421CD327
:1003C000030A8B4201D394463FE0C3098B4201D319
:1003D000CB01C01A524183098B4201D38B01C01A51
:1003E000524143098B4201D34B01C01A52410309C8
:1003F0008B4201D30B01C01A5241C3088B4201D377
:10040000CB00C01A524183088B4201D38B00C01A23
:10041000524143088B4201D34B00C01A5241411A4A
:1004200000D201465241104670475DE0CA0F00D02D
:100430004942031000D34042534000229C46030926
:100440008B422DD3030A8B4212D3FC22890112BAAC
:10045000030A8B420CD3890192118B4208D3890184
:1004600092118B4204D389013AD0921100E089099C
:10047000C3098B4201D3CB01C01A524183098B427D
:1004800001D38B01C01A524143098B4201D34B0166
:10049000C01A524103098B4201D30B01C01A5241C9
:1004A000C3088B4201D3CB00C01A524183088B4250
:1004B00001D38B00C01A5241D9D243088B4201D3D9
:1004C0004B00C01A5241411A00D2014663465241C4
:1004D0005B10104601D34042002B00D549427047C3
:1004E00063465B1000D3404201B50020C046C046C1
:1004F00002BD70477047704770470000084B70B5E9
:100500000D467B4400F013F804462846FFF73EFEF4
:10051000002802D00020C04370BD204670BD0000FE
:100520004FFCFFFF01694A1C02610878704700B563
:100530008FB00291002105910549019379440391FF
:1005400011460490684600F024F80FB000BD00008A
:10055000E5FFFFFF754600F033F8AE46050069463B
:100560005346C008C000854618B020B5FFF72EFEE0
:1005700060BC00274908B6460026C0C5C0C5C0C536
:10058000C0C5C0C5C0C5C0C5C0C5403D49008D4639
:100590007047F8B506460024476880680090F56803
:1005A00002E00099B847641C3046A8470028F8D1FB
:1005B0002046F8BD0446C046C0462046FFF7ADFDC4
:1005C000004870470800002030B47446641E257847
:1005D000641CAB4204D3635D5B00E31830BC184776
:1005E0001D46F8E704060000000000200800000097
:1005F000C40000000C06000008000020680800008D
:0C060000E0000000040000510000005168
:04000005000001B93D
:00000001FF
