:020000040000FA
:10000000FC3F0020B90100000000000000000000DB
:1000100000000000000000000000000000000000E0
:1000200000000000000000000000000000000000D0
:10003000000000000000000000000000BD01000002
:1000400000000000C50100000000000000000000EA
:1000500000000000000000000000000000000000A0
:100060000000000000000000000000000000000090
:100070000000000000000000000000000000000080
:1000800000F002F800F040F80CA030C8083824183E
:100090002D18A246671EAB4654465D46AC4201D1C0
:1000A00000F032F87E460F3E0FCCB64601263342B2
:1000B00000D0FB1AA246AB4633431847EC1E0000A3
:1000C0000C1F0000103A02D378C878C1FAD8520742
:1000D00001D330C830C101D504680C6070470000FE
:1000E0000023002400250026103A01D378C1FBD854
:1000F000520700D330C100D50B6070471FB5C04612
:10010000C0461FBD10B510BD01F06CF81146FFF7D9
:10011000F5FF00F001F901F095F803B4FFF7F2FFE5
:1001200003BC00F036F8000000BF51210906097A2F
:10013000C907C90FF9D1512212061071704700BFCB
:1001400051210906097A08221142F9D051210906E4
:100150000878704710B503460C460A2B02D10D20D3
:10016000FFF7E2FF1846FFF7DFFF10BD10B50446AA
:10017000FFF7E5FF03461846FFF7D6FF0D2B03D127
:100180000A20FFF7D1FF0A23184610BD01460020C0
:10019000704702A000F0E8F800BFFEE70A4552529F
:1001A0004F52202D20657869742066726F6D206D26
:1001B00061696E28290A00000748004707B500F06A
:1001C00015F807BD07B500F012F807BD034804494C
:1001D000044A054B704700008100000070000020B9
:1001E00070080020700400207004002070477047E1
:1001F00000B501460B0001F07CF8110A0C0E10123C
:100200001416181A1C1E20222426282A2C0000202E
:1002100021E001201FE003201DE007201BE00F204C
:1002200019E01F2017E03F2015E07F2013E0FF209A
:1002300011E041480FE041480DE041480BE04148E2
:1002400009E0414807E0414805E0414803E04148F2
:1002500001E0002000BF00BF00BD3F482921490642
:10026000C8607047002903D029225206106002E0BE
:100270002922520650607047F0B58DB00446002028
:100280000C900026002C02DA01200C90644200251C
:1002900030E00A21204600F07FF8CFB2284600F077
:1002A0000CFB02460B460191009000202B4901F007
:1002B000A5F805910490384600F007FB03910290E1
:1002C000059B049A00F004FB09910890304600F069
:1002D000FCFA07910690099B089A00F07CFA0B91B2
:1002E0000A9000F0A5FAC6B20A21204600F054F8A0
:1002F00004466D1C002CCCDC2920400686600DB025
:10030000F0BD08B50021009102E00099491C009160
:1003100000998142F9D308BDFFF79FFF0AE000244E
:1003200006E02046FFF7A8FF0D48FFF7EAFF641C30
:10033000322CF6DDF3E70000FF010000FF030000B0
:10034000FF070000FF0F0000FF1F0000FF3F00003D
:10035000FF7F0000FFFF000000FFFF0000003040B3
:1003600000093D00704700000FB4054910B503AA0D
:10037000029800F0E5FB10BC08BC04B01847000070
:1003800000000020002203098B422CD3030A8B4279
:1003900011D300239C464EE003460B433CD400227D
:1003A00043088B4231D303098B421CD3030A8B428F
:1003B00001D394463FE0C3098B4201D3CB01C01A5D
:1003C000524183098B4201D38B01C01A5241430928
:1003D0008B4201D34B01C01A524103098B4201D316
:1003E0000B01C01A5241C3088B4201D3CB00C01A83
:1003F000524183088B4201D38B00C01A52414308FB
:100400008B4201D34B00C01A5241411A00D201461F
:100410005241104670475DE0CA0F00D049420310B8
:1004200000D34042534000229C4603098B422DD307
:10043000030A8B4212D3FC22890112BA030A8B42AF
:100440000CD3890192118B4208D3890192118B42FE
:1004500004D389013AD0921100E08909C3098B4283
:1004600001D3CB01C01A524183098B4201D38B01C6
:10047000C01A524143098B4201D34B01C01A524169
:1004800003098B4201D30B01C01A5241C3088B42AE
:1004900001D3CB00C01A524183088B4201D38B0099
:1004A000C01A5241D9D243088B4201D34B00C01A23
:1004B0005241411A00D20146634652415B10104638
:1004C00001D34042002B00D54942704763465B1080
:1004D00000D3404201B50020C046C04602BD70476F
:1004E00070477047F0B50C46871A9C410D46861A36
:1004F0009D4103D2C01BA141D21963410D0D1F0DB7
:10050000C64EEC1BAE435BD07F057F0D0026002F4F
:1005100050D02D05AC46A943DD020123ED0A1B0591
:100520001D4320231B1B23D41746E7403818714175
:100530002F46E740CC199D402818314661410C0DEB
:1005400026D161449A4012D50023401C59415200E3
:100550000DD140084000B24A4B00934207D305201A
:100560004007081801D5511000E0AE493046F0BDF3
:100570006B00002A00D001229A18203C1F231B1B6D
:1005800001D5002302E0E540281871410C0DD8D0B8
:10059000012424050919C407CD0740084908E40FC0
:1005A00028436144002CD6D00024401C61419A406D
:1005B000D1D1CEE76A05520DD9D1C90FC907D5E708
:1005C000974D4E00002801D0012400E0002434198A
:1005D0005F00002A01D0012600E00026BE19924FDC
:1005E000AC420BD8AE4209D8B44205D0BD00AC42F3
:1005F000BDD010461946F0BD9942FCD000203946C6
:10060000F0BDF0B51FB40C460F46811A9F41254638
:10061000861A9D4106D20125ED076F40401ABC4164
:1006200052187B41210D1E0D8D1BAC467B4D8D4319
:100630007ED075056D0D7CD00D05AE46AC431B0319
:100640001B0B7A4D52429D41202366469B1B14D3BF
:100650001746F740381800260090744160462F4630
:100660000741E41900989D402818664116D4714648
:1006700071189A4025D5012320E093182A466A4133
:100680005200002B00D0521C203E1E239B1B002B2F
:1006900061DD3541EE1728186641E8D5001876412E
:1006A0005B1C9A4000D3401C4B05F3181524E34013
:1006B00010D3002B52D071467118D30FC01802D33B
:1006C000491C05B0F0BD0123DB079A42F9D140086F
:1006D0004000F6E701225205B21801D1002853D09C
:1006E0000123CC0ADB029943891E002A08D1020C9F
:1006F00003D0020C0004103902E002460020203929
:100700000023550B05D112020823550B01D15201CC
:100710000D23550C01D112011B1DD50C01D19200E6
:100720009B1C150D01D152005B1C2025EE1A01E027
:100730002CE022E00546F54015439840CA1AE1072F
:1007400069181305C918002ABBDA032040070818E6
:10075000C10FC9070FE071466118B2E7F107400801
:100760000843711071444A000CD001235B059A4282
:10077000A7D2C90FC9070020A3E74905490D25D114
:10078000002001E00028F4D100219AE7244D660002
:10079000002801D0012100E0002171185F00002A2B
:1007A00001D0012600E00026BE191F4FA9420FD834
:1007B000AE420DD8B14207D0BD00A94206D01946BD
:1007C000A802414010467CE79C4201D0214678E7D0
:1007D0000020394675E730B40C465C4004D501244E
:1007E000E407634030BC0CE730BC7BE630B40C4619
:1007F0005C4004D50124E407634030BC72E630BCA1
:10080000FFE630B40124E40761400D465D4001D4A9
:1008100030BC67E6634030BCF3E60000FF07000031
:100820000000E0FF0000F07F0000F87F0000F0FF14
:10083000CB02420D10B51A430B1504D00124E40776
:100840002243002B06DB0A4CE31A05D41046D8409D
:10085000FF2B00DD002010BD4A00002800D0012041
:100860001018044A9042F5D8C817C04310BD0000C4
:100870001E0400000000E0FF1F22030C02D10F2223
:10088000000402D0030E03D004E0002001467047AC
:10089000083A0002030F01D1121F0001830F01D19A
:1008A000921E8000002801DB521E400012055118E4
:1008B0004205C012411810467047C10FC90700D049
:1008C0004042012292071143D6E701218907D3E76D
:1008D000F0B5904C0D092646AC46AE430D465D4042
:1008E00087B0002E7ED01E092746B743FAD0674650
:1008F0002740ED0F3D43264075D024012142FBD017
:100900007419FF25AD04641B0494CC02D9020123A1
:100910001B05C90A1943E40A1C430F012401030FF4
:10092000110F1C430F430501A10B88032D0916016C
:100930008443A80B82039543BB0B9A039743360964
:10094000BC46B20B9703BE430746574303972F4657
:1009500077430296BE46029F4619D71906967E43F4
:100960000597039FF71B7646BE1B77463F0100970E
:100970000196039FB60BF619B646019E009FB6047A
:10098000BF1902D37646761CB64676467600002F0F
:1009900001D001273E4367467D43AE46029F254670
:1009A0007D4300956D00AE1975466D00AF19654623
:1009B0005D19069E03956E437546751BAE460D196F
:1009C000059E02956E43009D5843761B75462D1A71
:1009D0004A439646B21A00920195FA0606D07D095E
:1009E000012201E076E072E0154300E07D09020A91
:1009F0000006002745197A417646300A36067619F0
:100A00005041019A950D9202961945410098820D28
:100A1000800280196A41594363465C43039D029BEF
:100A20006B435B1A1E1BB30EB601B6187B410A0B53
:100A3000090589195A41230A240624184B418B427F
:100A400000D2521C01204002824203D3152102260B
:100A5000F64302E014210326F6432020451AAA405B
:100A60001F46AF40CB402046C840049913430914A9
:100A7000711809055A1804993843C9075140AC4008
:100A800009D001239C4006D30023401C5941002C6F
:100A900001D140084000204B002A03DB1A4201D05C
:100AA0008B4312D1012204989206904207DB052065
:100AB0004007091819480143C012414004E00320CF
:100AC00040070818C10FC907002007B0F0BD00207B
:100AD000E907FAE706180C464C4111487642A04156
:100AE00014D394181A465A410D48644290410DD3CC
:100AF000012049004005814208D35900814205D3B5
:100B0000E90F054AC90700201143DEE70020054927
:100B1000DBE700000000FF070000F07FFFFFFF7F22
:100B20000000E0FF0000F87F704710B500F070FA99
:100B3000006810BD10B5044600F06AFA046010BDEC
:100B4000084B70B50D467B4400F06BFA044628460E
:100B5000FFF71CFB002802D00020C04370BD2046D8
:100B600070BD00000BF6FFFFF0B51FB4FA4F0E0981
:100B70001D09BC463E403D400C46B7435C408CB02E
:100B8000002F7DD06746AF43FBD0002D79D0002EDB
:100B9000FCD0E20F3243521BFF24A4041219089226
:100BA000420DCD02C7020E981543420DD9021143E2
:100BB000C202600305430143080C0195150CAC46C5
:100BC00005040B46AB430A9565462D04AA430995D7
:100BD000E24D040A7D446419803C257806466E4344
:100BE00001247619E405A61B7543ED0CAD1C490BD9
:100BF00069434919A401611A0E0CB6463604B14383
:100C0000694376466E43090C711889090591F90705
:100C100000D0A100049101997F08CC0727434C081C
:100C2000059DE10B4D432D0C294666467543029503
:100C30000D4645432E46029D7D1BB44100950D4651
:100C40005D4301942C0C2F040D465543AE462D0CEC
:100C50003D43029503947546049C2D04641B049443
:100C600006D2029C039D641C0026754103950294E4
:100C700001AC70CC009F7D1BB4410904009501E0DC
:100C80003BE15FE1079101940599A4086143090CD8
:100C90000C464443650BE70464464C43A646640B8C
:100CA0003C43039502947446049DE4042C1B049475
:100CB00006D2029C039D641C002675410395029494
:100CC00001AC70CC009F7D1BB44101940C465C4389
:100CD0000095650FE7000C465443A646640F3C435D
:100CE000039502947446049DE4002C1B049406D2E0
:100CF000029C039D641C002675410395029401AC7F
:100D000070CC009F7D1BB441AE09AF06049DC900A5
:100D1000AD092F43049DA406AD060495079D3443F9
:100D200069180791059DE10B4D432D0C2946664638
:100D3000754302950D4645432E46029D7D1BB441E9
:100D400000950D465D4301942C0C2F040D46554330
:100D5000AE462D0C3D43029503947546049C2D042C
:100D6000641B049406D2029C039D641C00267541FA
:100D70000395029401AC70CC009F7D1BB44101949B
:100D80008C050694079C890A611800950791019CBF
:100D90000599A4086143090C0D464543680BEF040F
:100DA0000D46644665436C0B3C43049FED047D1B7C
:100DB000AC4602D20025641C6841009E019D371B91
:100DC00085410846584301950C46460FC5005443DB
:100DD000600F28436546E4002C1B02D20025401C0E
:100DE0006E41019D3F1AB5412846BD098006284342
:100DF0008446A009BF064E020699A406761807434A
:100E0000079D002068410A99079019430020099B1B
:100E100000906046FF1913434041E20F64003A43DB
:100E2000A4460446D71A8C41A04203D90120009061
:100E300020463A46C70F941840416246D20F2243DB
:100E4000644664000494009CBE466400D71AA4461D
:100E5000044602978C417746002F01D1A04204D965
:100E60006046401C8446029A2046C40FA646941849
:100E70004041049A0546D20F224364466400D31AC7
:100E80008D417146002901D1A84202D9641C28462F
:100E90001A4610430122002800D0164361020020A8
:100EA000079B044689195C410223002C02DB491888
:100EB00013466441089DCE0A2D145D194B05670544
:100EC000E10A2C050C1908993E43C9076140002B23
:100ED00008D0934006D30022761C5141002B01D14B
:100EE000760876001E4A002C45DB2346134242D08A
:100EF000A24340D0304611B0F0BD0E4607184E4117
:100F0000184D7A42B5411AD30E9A1D4696185D4186
:100F1000144A7642AA4112D3012252054D00D5420D
:100F20000AD15C00D4420AD04B4002D59202114350
:100F3000E1E749004908DEE7E10FC9070AE00020C0
:100F40000949D8E70648014212D008482146014322
:100F5000C01241400020CEE70000FF074813000008
:100F60000000F07F0000E0FF0000F87FFFFFFF7F40
:100F70000342E4D0E0E70123089A9B069A4205DC8D
:100F8000032252078918C90FC907B4E7052252077F
:100F90008918074A1143D2125140ACE759405040DA
:100FA00010B54B40424059405040FFF7DDFD10BDA9
:100FB000FFFFFF7F70B506464800440D114B00202F
:100FC000002C0AD0634008D09A4206DA6542AA4251
:100FD00003DD12058019514170BDCD0FED07002CC6
:100FE00005D0002B05D0002A01DB07490D43294617
:100FF00070BD30460A03104302D00020034970BD83
:10100000304670BDFF0700000000F07F0000F87F51
:10101000004870470800002001694A1C02610878F6
:10102000704700B58FB002910021059105490193E9
:101030007944039111460490684600F0F2F80FB02D
:1010400000BD0000E5FFFFFFF8B5224C4E00069DF5
:10105000A6420AD8A64201D1002806D15E00A642C7
:1010600003D8A6420AD1002A08D00D242404254220
:101070002CD02946002000F0EBF8F8BD0C461C43AC
:101080000CD4994202D0EFF30080F8BD904202D018
:10109000EFF30080F8BDEFF30080F8BD09242407CA
:1010A000E5008B4206D0EFF30080A043591A06D228
:1010B000284304E0101A05D3EFF30080A04380F327
:1010C0000088F8BDEFF30080A043F1E7009500F041
:1010D000D7F8F8BD0000E0FFF0B502463D4C08032C
:1010E00013460D46034325400020002D63D03A4DA2
:1010F0008C4365D0002969DB0B0D1D05A943012533
:101100002D052943FD330124E34001D392184941C1
:10111000FF3381339C468B02940D012123438907C1
:101120004C42920200271B198C105D1A04D42D1B0F
:1011300002D42B466500491992185B416408F4D12A
:101140005C1A08D40125ED07EE175519744102D435
:101150002A462346491C94185B41012292071D46EA
:10116000E61B8D4106D4B61A854103D42B465500A3
:1011700034467F1924195B415208802AEFD123435A
:1011800000D0022338460A22D04001D30122134363
:101190008A0510436246890A12058918002B09D076
:1011A0000122D34002D30022401C5141002B01D127
:1011B00040084000F0BD002B06D0C90FC907F0BDA4
:1011C000002B03D1002901DB1046F0BD0020294689
:1011D000F0BD00000000F07F0000F87F004870477D
:1011E000080000207546FFF7F9FFAE460500694686
:1011F0005346C008C000854618B020B5FEF7E6FF8C
:1012000060BC00274908B6460026C0C5C0C5C0C599
:10121000C0C5C0C5C0C5C0C5C0C5403D49008D469C
:101220007047F8B506460024476880680090F56866
:1012300002E00099B847641C3046A8470028F8D15E
:101240002046F8BD0446C046C0462046FEF765FF6E
:10125000CA0210D54A03520F04D0C803C04301216B
:1012600088407047054AEFF30081080100091043E8
:1012700080F30088704700207047000000000030B5
:1012800010B500200249029A00F004F810BD0000D9
:101290000000F87F10B50C461107090F092904D08A
:1012A0000A290AD008290CD104E011460820FFF7CA
:1012B000CFFF06E0510606D501E0510601D5012019
:1012C000C007214610BDD10607D501010909CC0888
:1012D0004907000E0006044309E0410F20024907B8
:1012E000000A0143200E00061D22D1410143084699
:1012F000E7E730B47446641E2578641CAB4204D31F
:10130000635D5B00E31830BC18471D46F8E700003A
:101310004900CA02104300D004204A0D01D0012226
:101320001043054A490D914201D102210843012889
:1013300000D1052070470000FF070000F8B5044603
:101340004F1EC8000838211815461E46086849680F
:101350003A4606239A4310D02A463346FFF7B8FA96
:101360003A46D200083AA3181A687F1E5B68FFF756
:1013700032FA06223B469343EED1022F23D0042FAC
:1013800011D0062F2FD12A463346FFF7A1FAE36A80
:10139000A26AFFF720FA2A463346FFF799FA636AF2
:1013A000226AFFF718FA2A463346FFF791FAE369F3
:1013B000A269FFF710FA2A463346FFF789FA6369F4
:1013C0002269FFF708FA2A463346FFF781FAE368F5
:1013D000A268FFF700FA2A463346FFF779FA6368F6
:1013E0002268FFF7F8F9F8BD034A10B5002011078D
:1013F000FFF7E0FD10BD000001FDFFFFF0B51FB4D9
:1014000096B0054684460C461898199A00904900F3
:1014100050006300490840080493002D01D00126C4
:1014200000E000269E19FE4BF318FE4EB3420AD38D
:10143000009E5300002E00D001269F19F84EBF19C0
:101440007610B74207D260462146199B189AFFF7DB
:10145000C2F91BB0F0BD009F06463E4371D0F24E6C
:10146000B44201D1002D6CD06746049E002F00D0FD
:101470000127F719ED4EB74206D8009F002F00D084
:101480000127DB19B34207D928462146199B189A30
:10149000FFF7A1F91BB0F0BD00230793002C2EDA53
:1014A000E34B98422BDAE34B984201DB022325E021
:1014B000DD4B984223DBE04B060DF318142B0EDDB9
:1014C0003426F71A009BFB401E46BE40009FBE42DA
:1014D00015D1DE07F60F02239B1B07930FE0009E3A
:1014E000002E0CD11426F61A0346F3401F46B340D3
:1014F000834204D1FE07F60F02239B1B079363462A
:101500000B431FD1002A1DDA002C04D007980228B3
:1015100001D001280AD00220FFF70CFB002213465D
:101520001046C149FFF720FB1BB0F0BD0220FFF7BA
:1015300001FB2A4623460020BB49FFF715FB1BB0E1
:10154000F0BD14E0009B002B62D1B94B984221D131
:10155000BA48844202D16046002808D0B24881428D
:1015600009DB002A10DB189811461BB0F0BD0020E3
:10157000AD491BB0F0BD002A06DA11460122D207A0
:10158000189851401BB0F0BDAD49794408684968CE
:101590001BB0F0BDA44EB04224D1002A1EDA0029AF
:1015A00005D0994213D16046002809D016E0604664
:1015B000002875D19E49E20FD20711431BB0F0BD40
:1015C0000020E20F0146D20711431BB0F0BD994243
:1015D00004DA2A4623460020314669E0284621469F
:1015E0001BB0F0BD994213DA01239B079A4204D144
:1015F0002A46234610461946EBE3924B9A4207D1FE
:10160000231E05DB2846194600F0ECFB1BB0F0BD9D
:1016100063005B086646002E30D100290AD0844E54
:10162000B1422BD1002C0FDD002A1EDB00203146F9
:101630001BB0F0BD0798022817D0002C15D0012848
:1016400013D1002C15DB10E0002C17DA0798002AC4
:1016500009DB012803D0002075491BB0F0BD002034
:1016600079491BB0F0BD012803D0002001461BB012
:10167000F0BD00200121C9071BB0F0BDE617761CA4
:10168000079F0D963E430CD0704EB0427EDD704EEB
:10169000704BB04216DD99420EDC002A1CDB28E0BC
:1016A0005FE20120FFF746FA00221346104611467A
:1016B000FFF75AFA1BB0F0BD5B48814202DB002AFB
:1016C0000ADC16E0994202DA002A05DB11E0564BEB
:1016D000994217DD002A0CDD0220FFF72BFA0721C3
:1016E0005D4A00200907FFF765FC49004908002210
:1016F00051E20220FFF71EFAFFF776FE4900490883
:10170000002248E2002228462146FFF76FF8012216
:1017100004460D46D243FFF74DFC504A504BFFF7AD
:1017200070F822462B46FFF7D3F80022454BFFF70F
:1017300068F806460F4622462B4610461946FFF724
:10174000C7F83B463246FFF7C3F806460322099125
:101750005207444B20462946FFF7BAF80F460C9033
:10176000414A404B30460999FFF7B2F806460291CC
:101770003E4A3F4B20462946FFF7AAF83246029BD5
:10178000FFF734F804460B46024600E011E00991E9
:1017900039460C98FFF71FF800250E463B462846B1
:1017A0000C9AFFF723F82246099BFFF72AF80B460D
:1017B0008EE1012400202405A14207DA35222846C3
:1017C0001946FFF7F7FB05463420C0430A151218E7
:1017D0001948101804900803000B134906460E43DD
:1017E0002449884201DC002003E02349884202DAD0
:1017F0000120074604E004980027401C361B049093
:101800001E49F80079440F9008184368026828467A
:101810003146FEF7EBFF019119490C90794431E014
:10182000FFFF1F00FFFF0F000000F03F0000E0FF80
:101830000000F07F0000404301FCFFFF0000F0BF0C
:10184000120A00000000E03F0000F0FF0000E0414D
:101850000000F043FFFFEF3F0103000055555555D1
:101860005555D53F4715F73FFE822B6544DF5DF8A0
:101870000BAE543E8E9803007AB60B009006000023
:10188000780600000F980818436802682846314619
:10189000FEF7A1FF02460B460020FE49FFF764F960
:1018A00009910E90019B0C9AFFF712F805910A908E
:1018B0000B91F94801217844006812907010490793
:1018C0000843B90440180121C9044718F3490F9887
:1018D0007944081843680268002439461298FEF7D4
:1018E00085FF2A463346FEF78CFF02460B4620460C
:1018F0000B99FEF7EDFF054600913B462046129AF4
:101900000B99FEF7E5FF019B0C9AFEF77AFF2A463A
:10191000009BFEF76BFF099B0E9AFEF7D9FF109113
:1019200005990A9A0E900B461046FEF7D1FF054620
:101930000246DB480E460B4606217844FFF7FEFCC4
:1019400007462A463346069110461946FEF7C0FF61
:101950003A46069BFEF7BCFF05460E462046059B11
:101960000A9A0B99FEF737FF109B0E9AFEF7B0FF0D
:101970002A463346FEF72FFF019106900B99224627
:101980000B461046FEF7A4FFC64D00222B460391DE
:101990000090FEF720FF019B069AFEF71CFF0F4602
:1019A00022462B462046FEF721FF039B009AFEF7B6
:1019B0001DFF019B069AFEF724FF05460E462246B0
:1019C0003B4610460B99FEF783FF01910C90284689
:1019D0003146059B0A9AFEF77BFF05460E463B46BD
:1019E000224610990E98FEF773FF33462A46FEF7FB
:1019F000F2FE06460F460B46024601990C98FEF78A
:101A0000EAFE00200D460446019B0C9AFEF7EEFE0E
:101A10003B463246FEF7F5FE06460F4607225207C2
:101A2000A14B20462946FEF753FF019102909F4AA1
:101A30009D4B30463946FEF74BFF06460F469C4A03
:101A40009C4B20462946FEF743FF32463B46FEF7B5
:101A5000C2FE994A04467A440F98101843680268F7
:101A60002046FEF7B8FE05910A900498FEF725FF80
:101A700007460391059B0A9A01990298FEF7ABFE6F
:101A80008E4A04467A440F9810184368026820462C
:101A9000FEF7A1FE3A46039BFEF79DFE00250E468B
:101AA0003A462846039BFEF7A1FE854A04467A443F
:101AB0000F981018436802682046FEF797FE019BB6
:101AC000029AFEF793FE059B0A9AFEF79AFE0B46D2
:101AD00000210A91079A0D996E4C521E114301D1B3
:101AE000784C0A9100221999049202460F461898E0
:101AF000FEF7EEFE009007913B46049A199918985C
:101B0000FEF774FE2A463346FEF7E2FE079B009A74
:101B1000FEF761FE099110902A4633463946049833
:101B2000FEF7D6FE06460F46099B109AFEF753FEB7
:101B3000654A0D46914224DB5242AA18024310D155
:101B400032463B46FEF752FE049003915F4A604BDB
:101B500009991098FEF73FFE039B049A00F066F97E
:101B60002FD20220FEF7E6FF07215A4A002009077C
:101B7000FFF720FA49004908E20FD20711431BB0D2
:101B8000F0BD6A00544B52089A421AD3534AAA181D
:101B900002430CD102E011431BB0F0BD32463B467C
:101BA000FEF724FE099B109A00F040F909D80220A4
:101BB000FEF7C0FFFFF718FC49004908E20FD20703
:101BC000E9E768000023400845490493020D454BAE
:101BD0005218984223DD521C01200005D0404019C4
:101BE0004200520D5118404A7A4412680346944606
:101BF0003E4ACA40934302030120120B000510180D
:101C00001422511AC8400490002D01DA4042049079
:101C1000624630463946FEF7E9FD06460F46324633
:101C20003B4609991098FEF7D6FD00200D46024666
:101C30002F4B0E90FEF74CFE01910C902D4A2E4B2F
:101C400029460E98FEF744FE0791129032463B4615
:101C500029460E98FEF7CAFD099B109AFEF7D1FDA2
:101C6000264A274BFEF734FE079B129AFEF7B3FD78
:101C700007460B460246099101990C98FEF7ABFD09
:101C80000E460546019B0C9AFEF7B0FD3A46099BAD
:101C900038E000000000F03FE6060000C405000048
:101CA0008A0500000000084009C7EE3FFD033ADC4A
:101CB000F5015B14E02F3EBE5E040000200400002E
:101CC000F60300000000F0BF00009040FE822B658C
:101CD0004715973C0103000000CC904000346F3F53
:101CE00001FCFFFF0000E03FB4030000FFFF0F0016
:101CF000432EE63F396CA80C615C20BEEF39FAFE3A
:101D0000422EE63FFEF77DFD2A46334609911090AC
:101D100010461946FEF7DCFD02460E902F480F468E
:101D20000B4605217844FFF709FB3B460E9AFEF768
:101D3000CFFD2A463346FEF764FD07460891284644
:101D40003146099B109AFEF7C3FD099B109AFEF7D6
:101D500042FD012303910C9000229B07384608990D
:101D6000FEF744FD01910E903A4628463146089B05
:101D7000FEF7AEFD019B0E9AFEF7F6FE039B0C9A52
:101D8000FEF734FD2A463346FEF730FD0022144BA1
:101D9000FEF737FD064604980D4600054119091562
:101DA000002911DC30462946049AFFF703F9FFF7B2
:101DB000AFFA042801D1FFF717FB30462946049AF1
:101DC000FFF7F8F8064600E029180B463246214690
:101DD0000A98FEF77DFD1BB0F0BD0000D0010000A9
:101DE0000000F03FF8B506460C46FFF775F9050010
:101DF0000F4600D00120014349000B484908411A11
:101E0000C90F0DD0002E01D0012100E000210C43AC
:101E100061004908401AC00F02D10120FEF78AFE76
:101E200028463946F8BD00000000F07F70B5012556
:101E30001C002D050C4310D4EC4206D4AC420AD44D
:101E40008B4200D070BD824270BDEB4217D4E94294
:101E500015D48B4270BD9B4270BDEC4206D5AC429E
:101E6000F9D5994200D070BD904270BD6D005C0004
:101E7000EC4204D24C00EC4201D2994270BD0FB446
:101E8000034C0CBC03BC30B4FFF7DEF830BC70BDB3
:101E90001900160400000000000000000000F03FE0
:101EA000000000000000F83F0000000000000000FB
:101EB0000000004003B8E23F000000000000000006
:101EC00006D0CF43EBFD4C3E033333333333E33F94
:101ED000FFAB6FDBB66DDB3F4D268F515555D53FC0
:101EE00001411DA96074D13F65DBC9934A86CD3F8E
:101EF000EF4E454A287ECA3F3E5555555555C53F7C
:101F000093BDBE166CC166BF2CDE25AF6A56113F6D
:101F1000F16BD2C541BDBBBED0A4BE726937663E6F
:101F200080807F7E7D7C7B7A797877767675747316
:101F3000727171706F6E6E6D6C6C6B6A6A696868D5
:101F4000676666656464636362616160605F5F5E6B
:101F50005E5D5D5C5C5B5B5A5A59595858575756E1
:101F60005655555554545353525252515150505046
:101F70004F4F4F4E4E4D4D4D4C4C4C4B4B4B4A4A98
:101F80004A494949484848474747474646464545DC
:101F90004544444444434343434242424241414115
:101FA0000000000000000000C81F0000000000202A
:101FB00008000000C4000000D01F0000080000203E
:101FC00068080000E000000004000051000000511B
:04000005000001B93D
:00000001FF
