:020000040000FA
:10000000FC3F002051040000000000000000000040
:1000100000000000000000000000000000000000E0
:1000200000000000000000000000000000000000D0
:100030000000000000000000000000005504000067
:10004000000000005D04000000000000000000004F
:1000500000000000000000000000000000000000A0
:100060000000000000000000000000000000000090
:100070000000000000000000000000000000000080
:1000800000F002F800F040F80CA030C8083824183E
:100090002D18A246671EAB4654465D46AC4201D1C0
:1000A00000F032F87E460F3E0FCCB64601263342B2
:1000B00000D0FB1AA246AB46334318473406000073
:1000C00054060000103A02D378C878C1FAD8520713
:1000D00001D330C830C101D504680C6070470000FE
:1000E0000023002400250026103A01D378C1FBD854
:1000F000520700D330C100D50B6070471FB5C04612
:10010000C0461FBD10B510BD00F0AAFA1146FFF79A
:10011000F5FF00F00CF900F0D3FA03B4FFF7F2FF9B
:1001200003BC00F082F9000008B50021009102E054
:100130000099491C009100998142F9D308BD5121D1
:10014000090608789049914A127888548F490978AD
:10015000491C8E4A1170512109060871114609780F
:10016000632901D00D280CD188490978491E874A96
:1001700011700021844A854B1B78D1540121844A97
:1001800011707047704700B501460B0000F0A2FAED
:10019000110A0C0E10121416181A1C1E20222426E6
:1001A000282A2C00002021E001201FE003201DE070
:1001B00007201BE00F2019E01F2017E03F2015E06B
:1001C0007F2013E0FF2011E072480FE072480DE03D
:1001D00072480BE0724809E0724807E0724805E097
:1001E000724803E0724801E0002000BF00BF00BD7C
:1001F000704829214906C8607047012903D1292286
:100200005206106002E02922520650607047F3B592
:1002100081B004460026002C07DA0120400602992E
:10022000FFF7EBFF604204B204E03F208006029932
:10023000FFF7E3FF58481838844200DD044602986F
:10024000012801D1002500E004250EE00A21204606
:1002500000F032F9CFB2A9003846884086190A2149
:10026000204600F029F904B26D1C002CEEDC292098
:1002700040068660FEBD10B5014653231B0619716A
:1002800000BF53231B061A7880242240802AF8D00E
:10029000187A10BD30B504460120532109060870B4
:1002A0000B20FFF7E8FF2046FFF7E5FF0020FFF7F0
:1002B000E2FF05460020532109060870284630BD9C
:1002C000F1B500BF532000060078C707FF0F002FCD
:1002D000F8D101205321090608700B20FFF7CBFF4E
:1002E0000098FFF7C8FF0020FFF7C5FF0446002075
:1002F000FFF7C1FF05460020532109060870661963
:100300003046F8BD30B505460C460120532109069C
:1003100008700A20FFF7AFFF2846FFF7ACFF204622
:10032000FFF7A9FF002053210906087030BDFFF731
:100330005FFF082051210906087302201E4908604A
:100340000A212D20FFF7DEFF03212C20FFF7DAFF23
:100350001A48FFF7E9FE15E00820FFF79BFF054666
:100360000A20FFF797FF0446012168B2FFF74FFF0D
:100370001248FFF7D9FE002160B2FFF748FF0F488F
:10038000FFF7D2FEE8E700000C000020000000208C
:1003900001000020FF010000FF030000FF07000034
:1003A000FF0F0000FF1F0000FF3F0000FF7F000065
:1003B000FFFF00000077FF0000E100E040420F0077
:1003C00000BF51210906097AC907C90FF9D1512285
:1003D00012061071704700BF51210906097A0822E0
:1003E0001142F9D0512109060878704710B503462B
:1003F0000C460A2B02D10D20FFF7E2FF1846FFF74B
:10040000DFFF10BD10B50446FFF7E5FF03461846B1
:10041000FFF7D6FF0D2B03D10A20FFF7D1FF0A23E8
:10042000184610BD01460020704702A000F02CF8CD
:1004300000BFFEE70A4552524F52202D20657869D1
:10044000742066726F6D206D61696E28290A000044
:100450000748004707B5FFF795FE07BD07B5FFF74B
:100460006EFE07BD03480449044A054B704700006F
:1004700081000000D0000020D0080020D00400201F
:10048000D0040020704700000FB4054910B503AA3E
:10049000029800F0B9F810BC08BC04B0184700007E
:1004A00004000020002203098B422CD3030A8B4254
:1004B00011D300239C464EE003460B433CD400225C
:1004C00043088B4231D303098B421CD3030A8B426E
:1004D00001D394463FE0C3098B4201D3CB01C01A3C
:1004E000524183098B4201D38B01C01A5241430907
:1004F0008B4201D34B01C01A524103098B4201D3F5
:100500000B01C01A5241C3088B4201D3CB00C01A61
:10051000524183088B4201D38B00C01A52414308D9
:100520008B4201D34B00C01A5241411A00D20146FE
:100530005241104670475DE0CA0F00D04942031097
:1005400000D34042534000229C4603098B422DD3E6
:10055000030A8B4212D3FC22890112BA030A8B428E
:100560000CD3890192118B4208D3890192118B42DD
:1005700004D389013AD0921100E08909C3098B4262
:1005800001D3CB01C01A524183098B4201D38B01A5
:10059000C01A524143098B4201D34B01C01A524148
:1005A00003098B4201D30B01C01A5241C3088B428D
:1005B00001D3CB00C01A524183088B4201D38B0078
:1005C000C01A5241D9D243088B4201D34B00C01A02
:1005D0005241411A00D20146634652415B10104617
:1005E00001D34042002B00D54942704763465B105F
:1005F00000D3404201B50020C046C04602BD70474E
:100600007047704770470000084B70B50D467B443B
:1006100000F013F804462846FFF704FF002802D034
:100620000020C04370BD204670BD0000DBFDFFFF11
:1006300001694A1C02610878704700B58FB00291C9
:1006400000210591054901937944039111460490D5
:10065000684600F024F80FB000BD0000E5FFFFFF82
:10066000754600F033F8AE46050069465346C008AB
:10067000C000854618B020B5FFF7F4FE60BC002727
:100680004908B6460026C0C5C0C5C0C5C0C5C0C55E
:10069000C0C5C0C5C0C5403D49008D467047F8B5CE
:1006A00006460024476880680090F56802E00099DB
:1006B000B847641C3046A8470028F8D12046F8BD4A
:1006C0000446C046C0462046FFF727FD0048704755
:1006D0007000002030B47446641E2578641CAB4260
:1006E00004D3635D5B00E31830BC18471D46F8E790
:1006F00010070000000000200C000000C4000000F3
:100700001C0700000C000020C4080000E0000000EE
:0C07100000000000040000510000005137
:0400000500000451A2
:00000001FF
