:020000040000FA
:10000000FC3F0020C90100000000000000000000CB
:1000100000000000000000000000000000000000E0
:1000200000000000000000000000000000000000D0
:10003000000000000000000000000000CD010000F2
:1000400000000000D50100000000000000000000DA
:1000500000000000000000000000000000000000A0
:100060000000000000000000000000000000000090
:100070000000000000000000000000000000000080
:1000800000F002F800F048F80CA030C80838241836
:100090002D18A246671EAB4654465D46AC4201D1C0
:1000A00000F03AF87E460F3E0FCCB64601263342AA
:1000B00000D0FB1AA246AB46334318474804000061
:1000C00068040000103A02D378C878C1FAD8520701
:1000D00001D330C830C101D504680C6070470000FE
:1000E0000023002400250026103A01D378C1FBD854
:1000F000520700D330C100D50B60704710B5782986
:1001000002D100F00DF910BD002010BD1FB5C04692
:10011000C0461FBD10B510BD00F0B6F91146FFF77F
:10012000F5FF00F078F800F0CEF903B4FFF7F2FF26
:1001300003BC00F036F8000000BF51210906097A1F
:10014000C907C90FF9D1512212061071704700BFBB
:1001500051210906097A08221142F9D051210906D4
:100160000878704710B503460C460A2B02D10D20C3
:10017000FFF7E2FF1846FFF7DFFF10BD10B504469A
:10018000FFF7E5FF03461846FFF7D6FF0D2B03D117
:100190000A20FFF7D1FF0A23184610BD01460020B0
:1001A000704702A000F078F800BFFEE70A455252FF
:1001B0004F52202D20657869742066726F6D206D16
:1001C00061696E28290A00000748004707B500F05A
:1001D00016F807BD07B500F011F807BD034804493C
:1001E000044A054B704700008100000070000020A9
:1001F00070080020700400207004002070477047D1
:1002000008B50021009102E00099491C0091009975
:100210008142F9D308BD1048FFF7F2FF0FA000F0AC
:100220003BF853200006017813A000F035F8FF20BA
:10023000532109060870084601780FA000F02CF839
:10024000FE20532109060870084601780AA000F034
:1002500023F800BFFEE7000040420F000A57656C1C
:10026000636F6D6520746F20436F727465782D4DD8
:100270003020536F430A00000A53504920436F6EE9
:1002800074726F6C2052656769737465723A2025C9
:10029000780A0000704700000FB4054910B503AAA2
:1002A000029800F0C5F810BC08BC04B01847000064
:1002B00000000020F8B50E460446002020622046CB
:1002C000E1688847002829D0252802D06268A16803
:1002D00020E0E16820460027884705001ED0284618
:1002E0004138192802D80127FF022035324620461E
:1002F00027602946FFF702FF002808D0012804D014
:10030000F61DF608F6000836D9E7361DD7E762680D
:100310002846A1689047206A401CCFE7206AF8BDB4
:1003200070B504460D4621461068C046C046218877
:10033000090502D50F4A7A4402E00E4A7A440E3289
:1003400023460021243305E00607360F965D5E54F0
:10035000491C00090028F7D120780023000705D5A3
:10036000702D03D0002901D011320223204600F065
:1003700007F870BDA20100007047704770477047D2
:10038000FFB504460D4681B02430009021688806F0
:1003900004D51022E0699143216000E00120A842C9
:1003A00001DD471B00E000270498A1697A191018A5
:1003B000081AA0612078C00602D42046C046C04674
:1003C000002608E003986268A168805D9047206A73
:1003D000401C761C206204988642F3DB2078C0061D
:1003E0000AD52046C046C04606E06268A1683020B3
:1003F0009047206A401C206238467F1E0028F4DCAB
:1004000007E000986268A168405D9047206A401C40
:10041000206228466D1E0028F3DC2046C046C046F8
:100420002078000602D5022005B0F0BD0120FBE7D0
:10043000084B70B50D467B4400F013F8044628467F
:10044000FFF7ACFE002802D00020C04370BD20465C
:1004500070BD00002BFDFFFF01694A1C0261087896
:10046000704700B58FB002910021059105490193B5
:1004700079440391114604906846FFF71BFF0FB0C3
:1004800000BD0000E5FFFFFF754600F023F8AE4613
:10049000050069465346C008C000854618B020B51F
:1004A000FFF79CFE60BC00274908B6460026C0C581
:1004B000C0C5C0C5C0C5C0C5C0C5C0C5C0C5403D1C
:1004C00049008D4670470446C046C0462046FFF7A7
:1004D0002CFE000000487047080000203031323305
:1004E0003435363738394142434445464030580068
:1004F000303132333435363738396162636465669A
:1005000040307800240500000000002008000000B2
:10051000C40000002C05000008000020680800004E
:0C052000E0000000040000510000005149
:04000005000001C92D
:00000001FF
